{
  "_format": "hh-sol-artifact-1",
  "contractName": "LeaveApplication",
  "sourceName": "contracts/LeaveApplication.sol",
  "abi": [
    {
      "inputs": [],
      "stateMutability": "nonpayable",
      "type": "constructor"
    },
    {
      "inputs": [
        {
          "internalType": "address",
          "name": "",
          "type": "address"
        }
      ],
      "name": "AdminList",
      "outputs": [
        {
          "internalType": "bool",
          "name": "",
          "type": "bool"
        }
      ],
      "stateMutability": "view",
      "type": "function"
    },
    {
      "inputs": [
        {
          "internalType": "address",
          "name": "",
          "type": "address"
        },
        {
          "internalType": "uint256",
          "name": "",
          "type": "uint256"
        }
      ],
      "name": "ApplicationRegistry",
      "outputs": [
        {
          "internalType": "string",
          "name": "subject",
          "type": "string"
        },
        {
          "internalType": "string",
          "name": "reason",
          "type": "string"
        },
        {
          "internalType": "uint256",
          "name": "startDate",
          "type": "uint256"
        },
        {
          "internalType": "uint256",
          "name": "endDate",
          "type": "uint256"
        },
        {
          "internalType": "uint256",
          "name": "approveLevel",
          "type": "uint256"
        },
        {
          "internalType": "bool",
          "name": "academicLeave",
          "type": "bool"
        },
        {
          "internalType": "bool",
          "name": "dswReq",
          "type": "bool"
        },
        {
          "internalType": "bool",
          "name": "withDrawn",
          "type": "bool"
        },
        {
          "internalType": "uint256",
          "name": "prefixDate",
          "type": "uint256"
        },
        {
          "internalType": "string",
          "name": "prefixReason",
          "type": "string"
        },
        {
          "internalType": "uint256",
          "name": "suffixDate",
          "type": "uint256"
        },
        {
          "internalType": "string",
          "name": "suffixReason",
          "type": "string"
        }
      ],
      "stateMutability": "view",
      "type": "function"
    },
    {
      "inputs": [
        {
          "internalType": "string",
          "name": "_sub",
          "type": "string"
        },
        {
          "internalType": "string",
          "name": "_reason",
          "type": "string"
        },
        {
          "internalType": "uint256",
          "name": "_startDate",
          "type": "uint256"
        },
        {
          "internalType": "uint256",
          "name": "_endDate",
          "type": "uint256"
        },
        {
          "internalType": "bool",
          "name": "_academicLeave",
          "type": "bool"
        },
        {
          "internalType": "bool",
          "name": "_dswReq",
          "type": "bool"
        },
        {
          "internalType": "uint256",
          "name": "_prefixDate",
          "type": "uint256"
        },
        {
          "internalType": "string",
          "name": "_prefixReason",
          "type": "string"
        },
        {
          "internalType": "uint256",
          "name": "_suffixDate",
          "type": "uint256"
        },
        {
          "internalType": "string",
          "name": "_suffixReason",
          "type": "string"
        }
      ],
      "name": "applyLeave",
      "outputs": [],
      "stateMutability": "nonpayable",
      "type": "function"
    },
    {
      "inputs": [
        {
          "internalType": "address",
          "name": "key",
          "type": "address"
        }
      ],
      "name": "getApplicationsByStudentId",
      "outputs": [
        {
          "components": [
            {
              "internalType": "string",
              "name": "subject",
              "type": "string"
            },
            {
              "internalType": "string",
              "name": "reason",
              "type": "string"
            },
            {
              "internalType": "uint256",
              "name": "startDate",
              "type": "uint256"
            },
            {
              "internalType": "uint256",
              "name": "endDate",
              "type": "uint256"
            },
            {
              "internalType": "address[]",
              "name": "approvels",
              "type": "address[]"
            },
            {
              "internalType": "uint256",
              "name": "approveLevel",
              "type": "uint256"
            },
            {
              "internalType": "bool",
              "name": "academicLeave",
              "type": "bool"
            },
            {
              "internalType": "bool",
              "name": "dswReq",
              "type": "bool"
            },
            {
              "internalType": "bool",
              "name": "withDrawn",
              "type": "bool"
            },
            {
              "internalType": "uint256",
              "name": "prefixDate",
              "type": "uint256"
            },
            {
              "internalType": "string",
              "name": "prefixReason",
              "type": "string"
            },
            {
              "internalType": "uint256",
              "name": "suffixDate",
              "type": "uint256"
            },
            {
              "internalType": "string",
              "name": "suffixReason",
              "type": "string"
            }
          ],
          "internalType": "struct LeaveApplication.Application[]",
          "name": "",
          "type": "tuple[]"
        }
      ],
      "stateMutability": "view",
      "type": "function"
    },
    {
      "inputs": [
        {
          "internalType": "address",
          "name": "_key",
          "type": "address"
        }
      ],
      "name": "grantLeave",
      "outputs": [],
      "stateMutability": "nonpayable",
      "type": "function"
    },
    {
      "inputs": [
        {
          "internalType": "address",
          "name": "_admin",
          "type": "address"
        }
      ],
      "name": "makeAdmin",
      "outputs": [],
      "stateMutability": "nonpayable",
      "type": "function"
    },
    {
      "inputs": [
        {
          "internalType": "address",
          "name": "_key",
          "type": "address"
        }
      ],
      "name": "rejectLeave",
      "outputs": [],
      "stateMutability": "nonpayable",
      "type": "function"
    },
    {
      "inputs": [
        {
          "internalType": "address",
          "name": "_key",
          "type": "address"
        }
      ],
      "name": "withDrawLeave",
      "outputs": [],
      "stateMutability": "nonpayable",
      "type": "function"
    }
  ],
  "bytecode": "0x608060405234801561001057600080fd5b50336000806101000a81548173ffffffffffffffffffffffffffffffffffffffff021916908373ffffffffffffffffffffffffffffffffffffffff16021790555060018060008060009054906101000a900473ffffffffffffffffffffffffffffffffffffffff1673ffffffffffffffffffffffffffffffffffffffff1673ffffffffffffffffffffffffffffffffffffffff16815260200190815260200160002060006101000a81548160ff021916908315150217905550612341806100d86000396000f3fe608060405234801561001057600080fd5b50600436106100875760003560e01c8063472905ca1161005b578063472905ca146101245780634f172d9f14610140578063c1d6ccfa1461015c578063f51fbd9a1461019757610087565b8062ca000d1461008c57806307c526ed146100bc57806307fb28e2146100d85780633aede13814610108575b600080fd5b6100a660048036038101906100a19190611731565b6101b3565b6040516100b39190611cb7565b60405180910390f35b6100d660048036038101906100d19190611731565b6105ab565b005b6100f260048036038101906100ed9190611731565b610972565b6040516100ff9190611cd9565b60405180910390f35b610122600480360381019061011d9190611731565b610992565b005b61013e60048036038101906101399190611731565b610d69565b005b61015a60048036038101906101559190611796565b610e51565b005b6101766004803603810190610171919061175a565b6110c4565b60405161018e9c9b9a99989796959493929190611cf4565b60405180910390f35b6101b160048036038101906101ac9190611731565b611388565b005b6060600260008373ffffffffffffffffffffffffffffffffffffffff1673ffffffffffffffffffffffffffffffffffffffff168152602001908152602001600020805480602002602001604051908101604052809291908181526020016000905b828210156105a057838290600052602060002090600b0201604051806101a00160405290816000820180546102489061205d565b80601f01602080910402602001604051908101604052809291908181526020018280546102749061205d565b80156102c15780601f10610296576101008083540402835291602001916102c1565b820191906000526020600020905b8154815290600101906020018083116102a457829003601f168201915b505050505081526020016001820180546102da9061205d565b80601f01602080910402602001604051908101604052809291908181526020018280546103069061205d565b80156103535780601f1061032857610100808354040283529160200191610353565b820191906000526020600020905b81548152906001019060200180831161033657829003601f168201915b505050505081526020016002820154815260200160038201548152602001600482018054806020026020016040519081016040528092919081815260200182805480156103f557602002820191906000526020600020905b8160009054906101000a900473ffffffffffffffffffffffffffffffffffffffff1673ffffffffffffffffffffffffffffffffffffffff16815260200190600101908083116103ab575b50505050508152602001600582015481526020016006820160009054906101000a900460ff161515151581526020016006820160019054906101000a900460ff161515151581526020016006820160029054906101000a900460ff16151515158152602001600782015481526020016008820180546104739061205d565b80601f016020809104026020016040519081016040528092919081815260200182805461049f9061205d565b80156104ec5780601f106104c1576101008083540402835291602001916104ec565b820191906000526020600020905b8154815290600101906020018083116104cf57829003601f168201915b5050505050815260200160098201548152602001600a8201805461050f9061205d565b80601f016020809104026020016040519081016040528092919081815260200182805461053b9061205d565b80156105885780601f1061055d57610100808354040283529160200191610588565b820191906000526020600020905b81548152906001019060200180831161056b57829003601f168201915b50505050508152505081526020019060010190610214565b505050509050919050565b600160003373ffffffffffffffffffffffffffffffffffffffff1673ffffffffffffffffffffffffffffffffffffffff16815260200190815260200160002060009054906101000a900460ff16610637576040517f08c379a000000000000000000000000000000000000000000000000000000000815260040161062e90611e4a565b60405180910390fd5b6000600161064483611511565b61064e9190611f9f565b90506000600260008473ffffffffffffffffffffffffffffffffffffffff1673ffffffffffffffffffffffffffffffffffffffff16815260200190815260200160002082815481106106c9577f4e487b7100000000000000000000000000000000000000000000000000000000600052603260045260246000fd5b90600052602060002090600b0201600501541161071b576040517f08c379a000000000000000000000000000000000000000000000000000000000815260040161071290611e2a565b60405180910390fd5b60001515600260008473ffffffffffffffffffffffffffffffffffffffff1673ffffffffffffffffffffffffffffffffffffffff1681526020019081526020016000208281548110610796577f4e487b7100000000000000000000000000000000000000000000000000000000600052603260045260246000fd5b90600052602060002090600b020160060160029054906101000a900460ff161515146107f7576040517f08c379a00000000000000000000000000000000000000000000000000000000081526004016107ee90611e8a565b60405180910390fd5b600260008373ffffffffffffffffffffffffffffffffffffffff1673ffffffffffffffffffffffffffffffffffffffff168152602001908152602001600020818154811061086e577f4e487b7100000000000000000000000000000000000000000000000000000000600052603260045260246000fd5b90600052602060002090600b0201600401339080600181540180825580915050600190039060005260206000200160009091909190916101000a81548173ffffffffffffffffffffffffffffffffffffffff021916908373ffffffffffffffffffffffffffffffffffffffff1602179055506000600260008473ffffffffffffffffffffffffffffffffffffffff1673ffffffffffffffffffffffffffffffffffffffff1681526020019081526020016000208281548110610959577f4e487b7100000000000000000000000000000000000000000000000000000000600052603260045260246000fd5b90600052602060002090600b0201600501819055505050565b60016020528060005260406000206000915054906101000a900460ff1681565b600160003373ffffffffffffffffffffffffffffffffffffffff1673ffffffffffffffffffffffffffffffffffffffff16815260200190815260200160002060009054906101000a900460ff16610a1e576040517f08c379a0000000000000000000000000000000000000000000000000000000008152600401610a1590611dea565b60405180910390fd5b60006001610a2b83611511565b610a359190611f9f565b90506000600260008473ffffffffffffffffffffffffffffffffffffffff1673ffffffffffffffffffffffffffffffffffffffff1681526020019081526020016000208281548110610ab0577f4e487b7100000000000000000000000000000000000000000000000000000000600052603260045260246000fd5b90600052602060002090600b02016005015411610b02576040517f08c379a0000000000000000000000000000000000000000000000000000000008152600401610af990611dca565b60405180910390fd5b60001515600260008473ffffffffffffffffffffffffffffffffffffffff1673ffffffffffffffffffffffffffffffffffffffff1681526020019081526020016000208281548110610b7d577f4e487b7100000000000000000000000000000000000000000000000000000000600052603260045260246000fd5b90600052602060002090600b020160060160029054906101000a900460ff16151514610bde576040517f08c379a0000000000000000000000000000000000000000000000000000000008152600401610bd590611e6a565b60405180910390fd5b600260008373ffffffffffffffffffffffffffffffffffffffff1673ffffffffffffffffffffffffffffffffffffffff1681526020019081526020016000208181548110610c55577f4e487b7100000000000000000000000000000000000000000000000000000000600052603260045260246000fd5b90600052602060002090600b0201600401339080600181540180825580915050600190039060005260206000200160009091909190916101000a81548173ffffffffffffffffffffffffffffffffffffffff021916908373ffffffffffffffffffffffffffffffffffffffff160217905550600260008373ffffffffffffffffffffffffffffffffffffffff1673ffffffffffffffffffffffffffffffffffffffff1681526020019081526020016000208181548110610d3e577f4e487b7100000000000000000000000000000000000000000000000000000000600052603260045260246000fd5b90600052602060002090600b02016005016000815480929190610d60906120c0565b91905055505050565b60008054906101000a900473ffffffffffffffffffffffffffffffffffffffff1673ffffffffffffffffffffffffffffffffffffffff163373ffffffffffffffffffffffffffffffffffffffff1614610df7576040517f08c379a0000000000000000000000000000000000000000000000000000000008152600401610dee90611e0a565b60405180910390fd5b60018060008373ffffffffffffffffffffffffffffffffffffffff1673ffffffffffffffffffffffffffffffffffffffff16815260200190815260200160002060006101000a81548160ff02191690831515021790555050565b6000604051806101a001604052808c81526020018b81526020018a8152602001898152602001600067ffffffffffffffff811115610eb8577f4e487b7100000000000000000000000000000000000000000000000000000000600052604160045260246000fd5b604051908082528060200260200182016040528015610ee65781602001602082028036833780820191505090505b5081526020016001815260200188151581526020018715158152602001600015158152602001868152602001858152602001848152602001838152509050600260003373ffffffffffffffffffffffffffffffffffffffff1673ffffffffffffffffffffffffffffffffffffffff1681526020019081526020016000208190806001815401808255809150506001900390600052602060002090600b02016000909190919091506000820151816000019080519060200190610fa992919061155d565b506020820151816001019080519060200190610fc692919061155d565b5060408201518160020155606082015181600301556080820151816004019080519060200190610ff79291906115e3565b5060a0820151816005015560c08201518160060160006101000a81548160ff02191690831515021790555060e08201518160060160016101000a81548160ff0219169083151502179055506101008201518160060160026101000a81548160ff021916908315150217905550610120820151816007015561014082015181600801908051906020019061108b92919061155d565b50610160820151816009015561018082015181600a0190805190602001906110b492919061155d565b5050505050505050505050505050565b600260205281600052604060002081815481106110e057600080fd5b90600052602060002090600b0201600091509150508060000180546111049061205d565b80601f01602080910402602001604051908101604052809291908181526020018280546111309061205d565b801561117d5780601f106111525761010080835404028352916020019161117d565b820191906000526020600020905b81548152906001019060200180831161116057829003601f168201915b5050505050908060010180546111929061205d565b80601f01602080910402602001604051908101604052809291908181526020018280546111be9061205d565b801561120b5780601f106111e05761010080835404028352916020019161120b565b820191906000526020600020905b8154815290600101906020018083116111ee57829003601f168201915b5050505050908060020154908060030154908060050154908060060160009054906101000a900460ff16908060060160019054906101000a900460ff16908060060160029054906101000a900460ff16908060070154908060080180546112719061205d565b80601f016020809104026020016040519081016040528092919081815260200182805461129d9061205d565b80156112ea5780601f106112bf576101008083540402835291602001916112ea565b820191906000526020600020905b8154815290600101906020018083116112cd57829003601f168201915b50505050509080600901549080600a0180546113059061205d565b80601f01602080910402602001604051908101604052809291908181526020018280546113319061205d565b801561137e5780601f106113535761010080835404028352916020019161137e565b820191906000526020600020905b81548152906001019060200180831161136157829003601f168201915b505050505090508c565b6000600161139583611511565b61139f9190611f9f565b90506000600260008473ffffffffffffffffffffffffffffffffffffffff1673ffffffffffffffffffffffffffffffffffffffff168152602001908152602001600020828154811061141a577f4e487b7100000000000000000000000000000000000000000000000000000000600052603260045260246000fd5b90600052602060002090600b0201600501541161146c576040517f08c379a000000000000000000000000000000000000000000000000000000000815260040161146390611dca565b60405180910390fd5b6001600260008473ffffffffffffffffffffffffffffffffffffffff1673ffffffffffffffffffffffffffffffffffffffff16815260200190815260200160002082815481106114e5577f4e487b7100000000000000000000000000000000000000000000000000000000600052603260045260246000fd5b90600052602060002090600b020160060160026101000a81548160ff0219169083151502179055505050565b6000600260008373ffffffffffffffffffffffffffffffffffffffff1673ffffffffffffffffffffffffffffffffffffffff168152602001908152602001600020805490509050919050565b8280546115699061205d565b90600052602060002090601f01602090048101928261158b57600085556115d2565b82601f106115a457805160ff19168380011785556115d2565b828001600101855582156115d2579182015b828111156115d15782518255916020019190600101906115b6565b5b5090506115df919061166d565b5090565b82805482825590600052602060002090810192821561165c579160200282015b8281111561165b5782518260006101000a81548173ffffffffffffffffffffffffffffffffffffffff021916908373ffffffffffffffffffffffffffffffffffffffff16021790555091602001919060010190611603565b5b509050611669919061166d565b5090565b5b8082111561168657600081600090555060010161166e565b5090565b600061169d61169884611ecf565b611eaa565b9050828152602081018484840111156116b557600080fd5b6116c084828561201b565b509392505050565b6000813590506116d7816122c6565b92915050565b6000813590506116ec816122dd565b92915050565b600082601f83011261170357600080fd5b813561171384826020860161168a565b91505092915050565b60008135905061172b816122f4565b92915050565b60006020828403121561174357600080fd5b6000611751848285016116c8565b91505092915050565b6000806040838503121561176d57600080fd5b600061177b858286016116c8565b925050602061178c8582860161171c565b9150509250929050565b6000806000806000806000806000806101408b8d0312156117b657600080fd5b60008b013567ffffffffffffffff8111156117d057600080fd5b6117dc8d828e016116f2565b9a505060208b013567ffffffffffffffff8111156117f957600080fd5b6118058d828e016116f2565b99505060406118168d828e0161171c565b98505060606118278d828e0161171c565b97505060806118388d828e016116dd565b96505060a06118498d828e016116dd565b95505060c061185a8d828e0161171c565b94505060e08b013567ffffffffffffffff81111561187757600080fd5b6118838d828e016116f2565b9350506101006118958d828e0161171c565b9250506101208b013567ffffffffffffffff8111156118b357600080fd5b6118bf8d828e016116f2565b9150509295989b9194979a5092959850565b60006118dd83836118fd565b60208301905092915050565b60006118f58383611b64565b905092915050565b61190681611fd3565b82525050565b600061191782611f20565b6119218185611f5b565b935061192c83611f00565b8060005b8381101561195d57815161194488826118d1565b975061194f83611f41565b925050600181019050611930565b5085935050505092915050565b600061197582611f2b565b61197f8185611f6c565b93508360208202850161199185611f10565b8060005b858110156119cd57848403895281516119ae85826118e9565b94506119b983611f4e565b925060208a01995050600181019050611995565b50829750879550505050505092915050565b6119e881611fe5565b82525050565b6119f781611fe5565b82525050565b6000611a0882611f36565b611a128185611f7d565b9350611a2281856020860161202a565b611a2b81612196565b840191505092915050565b6000611a4182611f36565b611a4b8185611f8e565b9350611a5b81856020860161202a565b611a6481612196565b840191505092915050565b6000611a7c601c83611f8e565b9150611a87826121a7565b602082019050919050565b6000611a9f601983611f8e565b9150611aaa826121d0565b602082019050919050565b6000611ac2601883611f8e565b9150611acd826121f9565b602082019050919050565b6000611ae5601d83611f8e565b9150611af082612222565b602082019050919050565b6000611b08601a83611f8e565b9150611b138261224b565b602082019050919050565b6000611b2b601d83611f8e565b9150611b3682612274565b602082019050919050565b6000611b4e601e83611f8e565b9150611b598261229d565b602082019050919050565b60006101a0830160008301518482036000860152611b8282826119fd565b91505060208301518482036020860152611b9c82826119fd565b9150506040830151611bb16040860182611c99565b506060830151611bc46060860182611c99565b5060808301518482036080860152611bdc828261190c565b91505060a0830151611bf160a0860182611c99565b5060c0830151611c0460c08601826119df565b5060e0830151611c1760e08601826119df565b50610100830151611c2c6101008601826119df565b50610120830151611c41610120860182611c99565b50610140830151848203610140860152611c5b82826119fd565b915050610160830151611c72610160860182611c99565b50610180830151848203610180860152611c8c82826119fd565b9150508091505092915050565b611ca281612011565b82525050565b611cb181612011565b82525050565b60006020820190508181036000830152611cd1818461196a565b905092915050565b6000602082019050611cee60008301846119ee565b92915050565b6000610180820190508181036000830152611d0f818f611a36565b90508181036020830152611d23818e611a36565b9050611d32604083018d611ca8565b611d3f606083018c611ca8565b611d4c608083018b611ca8565b611d5960a083018a6119ee565b611d6660c08301896119ee565b611d7360e08301886119ee565b611d81610100830187611ca8565b818103610120830152611d948186611a36565b9050611da4610140830185611ca8565b818103610160830152611db78184611a36565b90509d9c50505050505050505050505050565b60006020820190508181036000830152611de381611a6f565b9050919050565b60006020820190508181036000830152611e0381611a92565b9050919050565b60006020820190508181036000830152611e2381611ab5565b9050919050565b60006020820190508181036000830152611e4381611ad8565b9050919050565b60006020820190508181036000830152611e6381611afb565b9050919050565b60006020820190508181036000830152611e8381611b1e565b9050919050565b60006020820190508181036000830152611ea381611b41565b9050919050565b6000611eb4611ec5565b9050611ec0828261208f565b919050565b6000604051905090565b600067ffffffffffffffff821115611eea57611ee9612167565b5b611ef382612196565b9050602081019050919050565b6000819050602082019050919050565b6000819050602082019050919050565b600081519050919050565b600081519050919050565b600081519050919050565b6000602082019050919050565b6000602082019050919050565b600082825260208201905092915050565b600082825260208201905092915050565b600082825260208201905092915050565b600082825260208201905092915050565b6000611faa82612011565b9150611fb583612011565b925082821015611fc857611fc7612109565b5b828203905092915050565b6000611fde82611ff1565b9050919050565b60008115159050919050565b600073ffffffffffffffffffffffffffffffffffffffff82169050919050565b6000819050919050565b82818337600083830152505050565b60005b8381101561204857808201518184015260208101905061202d565b83811115612057576000848401525b50505050565b6000600282049050600182168061207557607f821691505b6020821081141561208957612088612138565b5b50919050565b61209882612196565b810181811067ffffffffffffffff821117156120b7576120b6612167565b5b80604052505050565b60006120cb82612011565b91507fffffffffffffffffffffffffffffffffffffffffffffffffffffffffffffffff8214156120fe576120fd612109565b5b600182019050919050565b7f4e487b7100000000000000000000000000000000000000000000000000000000600052601160045260246000fd5b7f4e487b7100000000000000000000000000000000000000000000000000000000600052602260045260246000fd5b7f4e487b7100000000000000000000000000000000000000000000000000000000600052604160045260246000fd5b6000601f19601f8301169050919050565b7f6772616e744c656176653a20416c72656164792072656a656374656400000000600082015250565b7f6772616e744c656176653a20556e70726976696c656467656400000000000000600082015250565b7f6d616b6541646d696e3a20556e70726976696c65646765640000000000000000600082015250565b7f72656a6563744c656176653a20416c72656164792072656a6563746564000000600082015250565b7f72656a6563744c656176653a20556e70726976696c6564676564000000000000600082015250565b7f6772616e744c656176653a20416c72656164792077697468647261776e000000600082015250565b7f72656a6563744c656176653a20416c72656164792077697468647261776e0000600082015250565b6122cf81611fd3565b81146122da57600080fd5b50565b6122e681611fe5565b81146122f157600080fd5b50565b6122fd81612011565b811461230857600080fd5b5056fea2646970667358221220aceae1bb769074e76dd8b9461cfcbd274934827cedf561998db1201f21617a0964736f6c63430008040033",
  "linkReferences": {},
  "deployedLinkReferences": {}
}